8=FIX.4.4|9=94|35=A|34=1|49=pedroserrano2@gmail_com|52=20240524-01:09:34.319|56=FIXSIMDEMO|98=0|108=30|141=Y|10=084|8=FIX.4.4|9=76|35=0|34=2|49=pedroserrano2@gmail_com|52=20240524-01:10:04.939|56=FIXSIMDEMO|10=251|